{
  "contractName": "Papers",
  "abi": [
    {
      "inputs": [
        {
          "internalType": "string",
          "name": "_ipfsHash",
          "type": "string"
        }
      ],
      "name": "addPaper",
      "outputs": [],
      "stateMutability": "nonpayable",
      "type": "function"
    },
    {
      "inputs": [
        {
          "internalType": "string",
          "name": "_ipfsHash",
          "type": "string"
        },
        {
          "components": [
            {
              "internalType": "string[]",
              "name": "fields",
              "type": "string[]"
            }
          ],
          "internalType": "struct Papers.Metadata",
          "name": "_md",
          "type": "tuple"
        }
      ],
      "name": "addMetadataToPaper",
      "outputs": [],
      "stateMutability": "nonpayable",
      "type": "function"
    }
  ],
  "bytecode": "0x608060405234801561001057600080fd5b506105ad806100206000396000f3fe608060405234801561001057600080fd5b50600436106100365760003560e01c80634d98f7db1461003b57806388a2edba14610057575b600080fd5b6100556004803603810190610050919061039b565b610073565b005b610071600480360381019061006c91906103dc565b6100c9565b005b806000803373ffffffffffffffffffffffffffffffffffffffff1673ffffffffffffffffffffffffffffffffffffffff16815260200190815260200160002090805190602001906100c592919061010c565b5050565b806001836040516100da9190610479565b9081526020016040518091039020600082015181600001908051906020019061010492919061019a565b509050505050565b828054600181600116156101000203166002900490600052602060002090601f0160209004810192826101425760008555610189565b82601f1061015b57805160ff1916838001178555610189565b82800160010185558215610189579182015b8281111561018857825182559160200191906001019061016d565b5b50905061019691906101fa565b5090565b8280548282559060005260206000209081019282156101e9579160200282015b828111156101e85782518290805190602001906101d892919061010c565b50916020019190600101906101ba565b5b5090506101f69190610217565b5090565b5b808211156102135760008160009055506001016101fb565b5090565b5b80821115610237576000818161022e919061023b565b50600101610218565b5090565b50805460018160011615610100020316600290046000825580601f106102615750610280565b601f01602090049060005260206000209081019061027f91906101fa565b5b50565b600082601f83011261029457600080fd5b81356102a76102a2826104c1565b610490565b9150818183526020840193506020810190508360005b838110156102ed57813586016102d388826102f7565b8452602084019350602083019250506001810190506102bd565b5050505092915050565b600082601f83011261030857600080fd5b813561031b610316826104ed565b610490565b9150808252602083016020830185838301111561033757600080fd5b610342838284610533565b50505092915050565b60006020828403121561035d57600080fd5b6103676020610490565b9050600082013567ffffffffffffffff81111561038357600080fd5b61038f84828501610283565b60008301525092915050565b6000602082840312156103ad57600080fd5b600082013567ffffffffffffffff8111156103c757600080fd5b6103d3848285016102f7565b91505092915050565b600080604083850312156103ef57600080fd5b600083013567ffffffffffffffff81111561040957600080fd5b610415858286016102f7565b925050602083013567ffffffffffffffff81111561043257600080fd5b61043e8582860161034b565b9150509250929050565b60006104538261051d565b61045d8185610528565b935061046d818560208601610542565b80840191505092915050565b60006104858284610448565b915081905092915050565b6000604051905081810181811067ffffffffffffffff821117156104b7576104b6610575565b5b8060405250919050565b600067ffffffffffffffff8211156104dc576104db610575565b5b602082029050602081019050919050565b600067ffffffffffffffff82111561050857610507610575565b5b601f19601f8301169050602081019050919050565b600081519050919050565b600081905092915050565b82818337600083830152505050565b60005b83811015610560578082015181840152602081019050610545565b8381111561056f576000848401525b50505050565bfefea264697066735822122058ca9974a4b65bab968704f0c8ad9d7f1763584dab14530ac72d7c6425b173f164736f6c63430007040033",
  "immutableReferences": {},
  "source": "//SPDX-License-Identifier: UNLICENSED\npragma solidity ^0.7.4;\npragma experimental ABIEncoderV2;\n\ncontract Papers {\n    struct Metadata {\n        string[] fields;\n    }\n\n    // string == IPFS Hash of a paper\n    mapping (address => string) userToPaper;\n    mapping (string => Metadata) paperToMetadata;\n\n    function addPaper(string memory _ipfsHash) public {\n        userToPaper[msg.sender] = _ipfsHash;\n    }\n\n    function addMetadataToPaper(string memory _ipfsHash, Metadata memory _md) public {\n        paperToMetadata[_ipfsHash] = _md;\n    }\n}\n",
  "sourcePath": "/home/matthis/Documents/Epitech/POC/ResearchShare/src/contracts/contracts/papers.sol",
  "compiler": {
    "name": "solc",
    "version": "0.7.4+commit.3f05b770.Emscripten.clang"
  },
  "schemaVersion": "3.3.3",
  "updatedAt": "2021-01-08T16:58:15.552Z",
  "devdoc": {
    "kind": "dev",
    "methods": {},
    "version": 1
  },
  "userdoc": {
    "kind": "user",
    "methods": {},
    "version": 1
  }
}