{
  "contractName": "ResearchShare",
  "abi": [
    {
      "inputs": [
        {
          "internalType": "uint256",
          "name": "_reviewId",
          "type": "uint256"
        },
        {
          "components": [
            {
              "internalType": "string",
              "name": "comment",
              "type": "string"
            },
            {
              "internalType": "int256",
              "name": "page",
              "type": "int256"
            },
            {
              "internalType": "int256",
              "name": "line",
              "type": "int256"
            }
          ],
          "internalType": "struct Reviews.ChangeRequest[]",
          "name": "_requests",
          "type": "tuple[]"
        }
      ],
      "name": "addChangeRequestToReview",
      "outputs": [],
      "stateMutability": "nonpayable",
      "type": "function"
    },
    {
      "inputs": [
        {
          "internalType": "string",
          "name": "_ipfsHash",
          "type": "string"
        },
        {
          "components": [
            {
              "internalType": "string[]",
              "name": "fields",
              "type": "string[]"
            }
          ],
          "internalType": "struct Papers.Metadata",
          "name": "_md",
          "type": "tuple"
        }
      ],
      "name": "addMetadataToPaper",
      "outputs": [],
      "stateMutability": "nonpayable",
      "type": "function"
    },
    {
      "inputs": [
        {
          "internalType": "string",
          "name": "_ipfsHash",
          "type": "string"
        }
      ],
      "name": "addPaper",
      "outputs": [],
      "stateMutability": "nonpayable",
      "type": "function"
    },
    {
      "inputs": [
        {
          "internalType": "string",
          "name": "_ipfsHash",
          "type": "string"
        },
        {
          "internalType": "enum Reviews.ReviewStatus",
          "name": "_status",
          "type": "uint8"
        }
      ],
      "name": "addReview",
      "outputs": [
        {
          "internalType": "uint256",
          "name": "",
          "type": "uint256"
        }
      ],
      "stateMutability": "nonpayable",
      "type": "function"
    },
    {
      "inputs": [
        {
          "internalType": "uint256",
          "name": "_submitId",
          "type": "uint256"
        },
        {
          "internalType": "address[]",
          "name": "_reviewers",
          "type": "address[]"
        }
      ],
      "name": "addReviewers",
      "outputs": [],
      "stateMutability": "nonpayable",
      "type": "function"
    },
    {
      "inputs": [
        {
          "internalType": "string",
          "name": "_comment",
          "type": "string"
        },
        {
          "internalType": "int256",
          "name": "_page",
          "type": "int256"
        },
        {
          "internalType": "int256",
          "name": "_line",
          "type": "int256"
        }
      ],
      "name": "createChangeRequest",
      "outputs": [
        {
          "components": [
            {
              "internalType": "string",
              "name": "comment",
              "type": "string"
            },
            {
              "internalType": "int256",
              "name": "page",
              "type": "int256"
            },
            {
              "internalType": "int256",
              "name": "line",
              "type": "int256"
            }
          ],
          "internalType": "struct Reviews.ChangeRequest",
          "name": "",
          "type": "tuple"
        }
      ],
      "stateMutability": "pure",
      "type": "function",
      "constant": true
    },
    {
      "inputs": [
        {
          "internalType": "enum Reviews.ReviewStatus",
          "name": "_status",
          "type": "uint8"
        }
      ],
      "name": "createReview",
      "outputs": [
        {
          "components": [
            {
              "internalType": "enum Reviews.ReviewStatus",
              "name": "status",
              "type": "uint8"
            },
            {
              "internalType": "uint256",
              "name": "id",
              "type": "uint256"
            }
          ],
          "internalType": "struct Reviews.Review",
          "name": "",
          "type": "tuple"
        }
      ],
      "stateMutability": "nonpayable",
      "type": "function"
    },
    {
      "inputs": [],
      "name": "getUser",
      "outputs": [
        {
          "components": [
            {
              "internalType": "string",
              "name": "firstname",
              "type": "string"
            },
            {
              "internalType": "string",
              "name": "lastname",
              "type": "string"
            },
            {
              "internalType": "string[]",
              "name": "fields",
              "type": "string[]"
            }
          ],
          "internalType": "struct Users.User",
          "name": "",
          "type": "tuple"
        }
      ],
      "stateMutability": "view",
      "type": "function",
      "constant": true
    },
    {
      "inputs": [
        {
          "internalType": "string",
          "name": "_ipfsHash",
          "type": "string"
        }
      ],
      "name": "newSubmit",
      "outputs": [
        {
          "internalType": "uint256",
          "name": "",
          "type": "uint256"
        }
      ],
      "stateMutability": "nonpayable",
      "type": "function"
    },
    {
      "inputs": [
        {
          "internalType": "string",
          "name": "_firstname",
          "type": "string"
        },
        {
          "internalType": "string",
          "name": "_lastname",
          "type": "string"
        },
        {
          "internalType": "string[]",
          "name": "_fields",
          "type": "string[]"
        }
      ],
      "name": "registerUser",
      "outputs": [],
      "stateMutability": "nonpayable",
      "type": "function"
    },
    {
      "inputs": [
        {
          "internalType": "string",
          "name": "_ipfsHash",
          "type": "string"
        }
      ],
      "name": "submitPaper",
      "outputs": [],
      "stateMutability": "nonpayable",
      "type": "function"
    }
  ],
  "bytecode": "0x60806040526000600255600160035534801561001a57600080fd5b506116ce8061002a6000396000f3fe608060405234801561001057600080fd5b50600436106100a95760003560e01c8063832880e711610071578063832880e71461016257806388a2edba14610180578063d5da46041461019c578063de7cc07f146101cc578063e7a8c912146101e8578063fc05544a14610204576100a9565b806328c5be3c146100ae5780634d98f7db146100de57806365bd95cc146100fa578063682e8ca51461011657806381f44eeb14610132575b600080fd5b6100c860048036038101906100c39190610f27565b610234565b6040516100d5919061140f565b60405180910390f35b6100f860048036038101906100f39190610ee6565b6102fa565b005b610114600480360381019061010f91906110e5565b610351565b005b610130600480360381019061012b9190611139565b61037d565b005b61014c60048036038101906101479190610ebd565b610443565b60405161015991906113d2565b60405180910390f35b61016a610492565b60405161017791906113ed565b60405180910390f35b61019a60048036038101906101959190611079565b610715565b005b6101b660048036038101906101b19190610f7b565b610758565b6040516101c391906113b0565b60405180910390f35b6101e660048036038101906101e19190610ee6565b610784565b005b61020260048036038101906101fd9190610fe2565b6107b6565b005b61021e60048036038101906102199190610ee6565b61086e565b60405161022b919061140f565b60405180910390f35b6000806005846040516102479190611399565b9081526020016040518091039020549050600081141561026657600080fd5b61026e61097a565b61027784610443565b90506007600083815260200190815260200160002081908060018154018082558091505060019003906000526020600020906002020160009091909190915060008201518160000160006101000a81548160ff021916908360028111156102da57fe5b021790555060208201518160010155505080602001519250505092915050565b80600960003373ffffffffffffffffffffffffffffffffffffffff1673ffffffffffffffffffffffffffffffffffffffff168152602001908152602001600020908051906020019061034d92919061099f565b5050565b80600860008481526020019081526020016000209080519060200190610378929190610a2d565b505050565b600060016000848152602001908152602001600020805490509050600081146103a557600080fd5b60005b81811461043d57600160008581526020019081526020016000208382815181106103ce57fe5b60200260200101519080600181540180825580915050600190039060005260206000209060030201600090919091909150600082015181600001908051906020019061041b92919061099f565b50602082015181600101556040820151816002015550506001810190506103a8565b50505050565b61044b61097a565b61045361097a565b604051806040016040528084600281111561046a57fe5b8152602001600254815250905060026000815480929190600101919050555080915050919050565b61049a610ab7565b6000803373ffffffffffffffffffffffffffffffffffffffff1673ffffffffffffffffffffffffffffffffffffffff168152602001908152602001600020604051806060016040529081600082018054600181600116156101000203166002900480601f01602080910402602001604051908101604052809291908181526020018280546001816001161561010002031660029004801561057c5780601f106105515761010080835404028352916020019161057c565b820191906000526020600020905b81548152906001019060200180831161055f57829003601f168201915b50505050508152602001600182018054600181600116156101000203166002900480601f01602080910402602001604051908101604052809291908181526020018280546001816001161561010002031660029004801561061e5780601f106105f35761010080835404028352916020019161061e565b820191906000526020600020905b81548152906001019060200180831161060157829003601f168201915b5050505050815260200160028201805480602002602001604051908101604052809291908181526020016000905b82821015610708578382906000526020600020018054600181600116156101000203166002900480601f0160208091040260200160405190810160405280929190818152602001828054600181600116156101000203166002900480156106f45780601f106106c9576101008083540402835291602001916106f4565b820191906000526020600020905b8154815290600101906020018083116106d757829003601f168201915b50505050508152602001906001019061064c565b5050505081525050905090565b80600a836040516107269190611399565b90815260200160405180910390206000820151816000019080519060200190610750929190610ad8565b509050505050565b610760610b38565b60405180606001604052808581526020018481526020018381525090509392505050565b600061078f8261086e565b9050606061079b61096c565b90506107a78282610351565b6107b18382610976565b505050565b6040518060600160405280848152602001838152602001828152506000803373ffffffffffffffffffffffffffffffffffffffff1673ffffffffffffffffffffffffffffffffffffffff168152602001908152602001600020600082015181600001908051906020019061082b92919061099f565b50602082015181600101908051906020019061084892919061099f565b506040820151816002019080519060200190610865929190610ad8565b50905050505050565b6000806005836040516108819190611399565b9081526020016040518091039020541461089a57600080fd5b600060035490506001600360008282540192505081905550806005846040516108c39190611399565b908152602001604051809103902081905550826004600083815260200190815260200160002090805190602001906108fc92919061099f565b50600660003373ffffffffffffffffffffffffffffffffffffffff1673ffffffffffffffffffffffffffffffffffffffff16815260200190815260200160002081908060018154018082558091505060019003906000526020600020016000909190919091505580915050919050565b6060808091505090565b5050565b60405180604001604052806000600281111561099257fe5b8152602001600081525090565b828054600181600116156101000203166002900490600052602060002090601f0160209004810192826109d55760008555610a1c565b82601f106109ee57805160ff1916838001178555610a1c565b82800160010185558215610a1c579182015b82811115610a1b578251825591602001919060010190610a00565b5b509050610a299190610b59565b5090565b828054828255906000526020600020908101928215610aa6579160200282015b82811115610aa55782518260006101000a81548173ffffffffffffffffffffffffffffffffffffffff021916908373ffffffffffffffffffffffffffffffffffffffff16021790555091602001919060010190610a4d565b5b509050610ab39190610b59565b5090565b60405180606001604052806060815260200160608152602001606081525090565b828054828255906000526020600020908101928215610b27579160200282015b82811115610b26578251829080519060200190610b1692919061099f565b5091602001919060010190610af8565b5b509050610b349190610b76565b5090565b60405180606001604052806060815260200160008152602001600081525090565b5b80821115610b72576000816000905550600101610b5a565b5090565b5b80821115610b965760008181610b8d9190610b9a565b50600101610b77565b5090565b50805460018160011615610100020316600290046000825580601f10610bc05750610bdf565b601f016020900490600052602060002090810190610bde9190610b59565b5b50565b600081359050610bf181611643565b92915050565b600082601f830112610c0857600080fd5b8135610c1b610c168261145b565b61142a565b91508181835260208401935060208101905083856020840282011115610c4057600080fd5b60005b83811015610c705781610c568882610be2565b845260208401935060208301925050600181019050610c43565b5050505092915050565b600082601f830112610c8b57600080fd5b8135610c9e610c9982611487565b61142a565b9150818183526020840193506020810190508360005b83811015610ce45781358601610cca8882610d8c565b845260208401935060208301925050600181019050610cb4565b5050505092915050565b600082601f830112610cff57600080fd5b8135610d12610d0d826114b3565b61142a565b9150818183526020840193506020810190508360005b83811015610d585781358601610d3e8882610de0565b845260208401935060208301925050600181019050610d28565b5050505092915050565b600081359050610d718161165a565b92915050565b600081359050610d868161166a565b92915050565b600082601f830112610d9d57600080fd5b8135610db0610dab826114df565b61142a565b91508082526020830160208301858383011115610dcc57600080fd5b610dd78382846115da565b50505092915050565b600060608284031215610df257600080fd5b610dfc606061142a565b9050600082013567ffffffffffffffff811115610e1857600080fd5b610e2484828501610d8c565b6000830152506020610e3884828501610d77565b6020830152506040610e4c84828501610d77565b60408301525092915050565b600060208284031215610e6a57600080fd5b610e74602061142a565b9050600082013567ffffffffffffffff811115610e9057600080fd5b610e9c84828501610c7a565b60008301525092915050565b600081359050610eb781611681565b92915050565b600060208284031215610ecf57600080fd5b6000610edd84828501610d62565b91505092915050565b600060208284031215610ef857600080fd5b600082013567ffffffffffffffff811115610f1257600080fd5b610f1e84828501610d8c565b91505092915050565b60008060408385031215610f3a57600080fd5b600083013567ffffffffffffffff811115610f5457600080fd5b610f6085828601610d8c565b9250506020610f7185828601610d62565b9150509250929050565b600080600060608486031215610f9057600080fd5b600084013567ffffffffffffffff811115610faa57600080fd5b610fb686828701610d8c565b9350506020610fc786828701610d77565b9250506040610fd886828701610d77565b9150509250925092565b600080600060608486031215610ff757600080fd5b600084013567ffffffffffffffff81111561101157600080fd5b61101d86828701610d8c565b935050602084013567ffffffffffffffff81111561103a57600080fd5b61104686828701610d8c565b925050604084013567ffffffffffffffff81111561106357600080fd5b61106f86828701610c7a565b9150509250925092565b6000806040838503121561108c57600080fd5b600083013567ffffffffffffffff8111156110a657600080fd5b6110b285828601610d8c565b925050602083013567ffffffffffffffff8111156110cf57600080fd5b6110db85828601610e58565b9150509250929050565b600080604083850312156110f857600080fd5b600061110685828601610ea8565b925050602083013567ffffffffffffffff81111561112357600080fd5b61112f85828601610bf7565b9150509250929050565b6000806040838503121561114c57600080fd5b600061115a85828601610ea8565b925050602083013567ffffffffffffffff81111561117757600080fd5b61118385828601610cee565b9150509250929050565b60006111998383611234565b905092915050565b60006111ac8261151f565b6111b68185611542565b9350836020820285016111c88561150f565b8060005b8581101561120457848403895281516111e5858261118d565b94506111f083611535565b925060208a019950506001810190506111cc565b50829750879550505050505092915050565b61121f816115c8565b82525050565b61122e81611594565b82525050565b600061123f8261152a565b6112498185611553565b93506112598185602086016115e9565b6112628161161e565b840191505092915050565b60006112788261152a565b6112828185611564565b93506112928185602086016115e9565b80840191505092915050565b600060608301600083015184820360008601526112bb8282611234565b91505060208301516112d06020860182611225565b5060408301516112e36040860182611225565b508091505092915050565b6040820160008201516113046000850182611216565b506020820151611317602085018261137b565b50505050565b6000606083016000830151848203600086015261133a8282611234565b915050602083015184820360208601526113548282611234565b9150506040830151848203604086015261136e82826111a1565b9150508091505092915050565b611384816115be565b82525050565b611393816115be565b82525050565b60006113a5828461126d565b915081905092915050565b600060208201905081810360008301526113ca818461129e565b905092915050565b60006040820190506113e760008301846112ee565b92915050565b60006020820190508181036000830152611407818461131d565b905092915050565b6000602082019050611424600083018461138a565b92915050565b6000604051905081810181811067ffffffffffffffff821117156114515761145061161c565b5b8060405250919050565b600067ffffffffffffffff8211156114765761147561161c565b5b602082029050602081019050919050565b600067ffffffffffffffff8211156114a2576114a161161c565b5b602082029050602081019050919050565b600067ffffffffffffffff8211156114ce576114cd61161c565b5b602082029050602081019050919050565b600067ffffffffffffffff8211156114fa576114f961161c565b5b601f19601f8301169050602081019050919050565b6000819050602082019050919050565b600081519050919050565b600081519050919050565b6000602082019050919050565b600082825260208201905092915050565b600082825260208201905092915050565b600081905092915050565b600061157a8261159e565b9050919050565b600081905061158f8261162f565b919050565b6000819050919050565b600073ffffffffffffffffffffffffffffffffffffffff82169050919050565b6000819050919050565b60006115d382611581565b9050919050565b82818337600083830152505050565b60005b838110156116075780820151818401526020810190506115ec565b83811115611616576000848401525b50505050565bfe5b6000601f19601f8301169050919050565b600381106116405761163f61161c565b5b50565b61164c8161156f565b811461165757600080fd5b50565b6003811061166757600080fd5b50565b61167381611594565b811461167e57600080fd5b50565b61168a816115be565b811461169557600080fd5b5056fea2646970667358221220b4e83646014c1d1ce5c3c50342238ae192340d148644486b0d609c10076eacde64736f6c63430007040033",
  "immutableReferences": {},
  "source": "//SPDX-License-Identifier: UNLICENSED\npragma solidity ^0.7.4;\npragma experimental ABIEncoderV2;\n\nimport \"./users.sol\";\nimport \"./submits.sol\";\nimport \"./papers.sol\";\n\ncontract ResearchShare is Users, Submits, Papers {\n    /**\n     * Creates a Submit and start the Review process.\n     *\n     * @param _ipfsHash Hash of the submitter Paper.\n     **/\n    function submitPaper(string memory _ipfsHash) public {\n        uint submitId = newSubmit(_ipfsHash);\n        address[] memory reviewers = findReviewers();\n\n        addReviewers(submitId, reviewers);\n        notifyReviewers(_ipfsHash, reviewers);\n    }\n\n    /**\n     * TODO: Add proper parameters\n     * TODO: Add process of finding reviewers\n     **/\n    function findReviewers() private view returns (address[] memory) {\n        address[] memory reviewers;\n\n        return reviewers;\n    }\n\n    /**\n     * Sends notification to reviewers containing the paper's hash so they can review it.\n     *\n     * @param _ipfsHash  Hash of the submitted Paper.\n     * @param _reviewers List of the reviewers to be notified.\n     *\n     * TODO: Does it really have its place here?\n     *       Should \"submitPaper\" return the reviewers to the front so it can notify them?\n     **/\n    function notifyReviewers(string memory _ipfsHash, address[] memory _reviewers) private {\n    }\n}\n",
  "sourcePath": "/home/matthis/Documents/Epitech/POC/ResearchShare/src/contracts/contracts/researchShare.sol",
  "compiler": {
    "name": "solc",
    "version": "0.7.4+commit.3f05b770.Emscripten.clang"
  },
  "schemaVersion": "3.3.3",
  "updatedAt": "2021-01-08T17:47:56.636Z",
  "networkType": "ethereum",
  "devdoc": {
    "kind": "dev",
    "methods": {
      "addChangeRequestToReview(uint256,(string,int256,int256)[])": {
        "params": {
          "_requests": "List of the requests asked by the reviewer. The front will ask the reviewer the status of its review, and right after it will ask if he wants to add ChangeRequests. The reviewer will create _requests array the front which will call 'createChangeRequest'*",
          "_reviewId": "Id freshly returned by @createReview."
        }
      },
      "addReview(string,uint8)": {
        "params": {
          "_ipfsHash": "Hash of the submitted file.",
          "_status": "What the reviewers think should happen next to the submit.*"
        }
      },
      "addReviewers(uint256,address[])": {
        "params": {
          "_reviewers": "List of the reviewers.*",
          "_submitId": "Id of the submit."
        }
      },
      "createChangeRequest(string,int256,int256)": {
        "params": {
          "_comment": "What the reviewers think is not okay or wants changed",
          "_line": "The line concerned by the comment (-1 if it's for the whole paper) Due to the length of a call to a contract, I think it would be best if the front can create the changeRequests by itself.*",
          "_page": "The page concerned by the comment (-1 if it's for the whole paper)"
        }
      },
      "createReview(uint8)": {
        "params": {
          "_status": "what the reviewers think should happen next (accept, reject, change).*"
        }
      },
      "newSubmit(string)": {
        "params": {
          "_ipfsHash": "Hash of the submitted file.*"
        }
      },
      "submitPaper(string)": {
        "params": {
          "_ipfsHash": "Hash of the submitter Paper.*"
        }
      }
    },
    "version": 1
  },
  "userdoc": {
    "kind": "user",
    "methods": {
      "addChangeRequestToReview(uint256,(string,int256,int256)[])": {
        "notice": "Add a list of requests to a newly created review."
      },
      "addReview(string,uint8)": {
        "notice": "Add a new review to a submit and returns the review's id;"
      },
      "addReviewers(uint256,address[])": {
        "notice": "Add Reviwers to a submit."
      },
      "createChangeRequest(string,int256,int256)": {
        "notice": "Helper function which simply returns a ChangeRequest."
      },
      "createReview(uint8)": {
        "notice": "Create a review and returns it's id so the front can possibly add ChangeRequests"
      },
      "newSubmit(string)": {
        "notice": "Add a submit to \"userToSubmits\" if it doesn't exists."
      },
      "submitPaper(string)": {
        "notice": "Creates a Submit and start the Review process."
      }
    },
    "version": 1
  }
}