{
  "contractName": "Reviews",
  "abi": [
    {
      "inputs": [
        {
          "internalType": "enum Reviews.ReviewStatus",
          "name": "_status",
          "type": "uint8"
        }
      ],
      "name": "createReview",
      "outputs": [
        {
          "components": [
            {
              "internalType": "enum Reviews.ReviewStatus",
              "name": "status",
              "type": "uint8"
            },
            {
              "internalType": "uint256",
              "name": "id",
              "type": "uint256"
            }
          ],
          "internalType": "struct Reviews.Review",
          "name": "",
          "type": "tuple"
        }
      ],
      "stateMutability": "nonpayable",
      "type": "function"
    },
    {
      "inputs": [
        {
          "internalType": "uint256",
          "name": "_reviewId",
          "type": "uint256"
        },
        {
          "components": [
            {
              "internalType": "string",
              "name": "comment",
              "type": "string"
            },
            {
              "internalType": "int256",
              "name": "page",
              "type": "int256"
            },
            {
              "internalType": "int256",
              "name": "line",
              "type": "int256"
            }
          ],
          "internalType": "struct Reviews.ChangeRequest[]",
          "name": "_requests",
          "type": "tuple[]"
        }
      ],
      "name": "addChangeRequestToReview",
      "outputs": [],
      "stateMutability": "nonpayable",
      "type": "function"
    },
    {
      "inputs": [
        {
          "internalType": "string",
          "name": "_comment",
          "type": "string"
        },
        {
          "internalType": "int256",
          "name": "_page",
          "type": "int256"
        },
        {
          "internalType": "int256",
          "name": "_line",
          "type": "int256"
        }
      ],
      "name": "createChangeRequest",
      "outputs": [
        {
          "components": [
            {
              "internalType": "string",
              "name": "comment",
              "type": "string"
            },
            {
              "internalType": "int256",
              "name": "page",
              "type": "int256"
            },
            {
              "internalType": "int256",
              "name": "line",
              "type": "int256"
            }
          ],
          "internalType": "struct Reviews.ChangeRequest",
          "name": "",
          "type": "tuple"
        }
      ],
      "stateMutability": "pure",
      "type": "function"
    }
  ],
  "bytecode": "0x6080604052600060015534801561001557600080fd5b50610836806100256000396000f3fe608060405234801561001057600080fd5b50600436106100415760003560e01c8063682e8ca51461004657806381f44eeb14610062578063d5da460414610092575b600080fd5b610060600480360381019061005b9190610501565b6100c2565b005b61007c60048036038101906100779190610471565b610186565b604051610089919061065c565b60405180910390f35b6100ac60048036038101906100a7919061049a565b6101d5565b6040516100b9919061063a565b60405180910390f35b6000806000848152602001908152602001600020805490509050600081146100e957600080fd5b60005b8181146101805760008085815260200190815260200160002083828151811061011157fe5b60200260200101519080600181540180825580915050600190039060005260206000209060030201600090919091909150600082015181600001908051906020019061015e929190610201565b50602082015181600101556040820151816002015550506001810190506100ec565b50505050565b61018e61028f565b61019661028f565b60405180604001604052808460028111156101ad57fe5b8152602001600154815250905060016000815480929190600101919050555080915050919050565b6101dd6102b4565b60405180606001604052808581526020018481526020018381525090509392505050565b828054600181600116156101000203166002900490600052602060002090601f016020900481019282610237576000855561027e565b82601f1061025057805160ff191683800117855561027e565b8280016001018555821561027e579182015b8281111561027d578251825591602001919060010190610262565b5b50905061028b91906102d5565b5090565b6040518060400160405280600060028111156102a757fe5b8152602001600081525090565b60405180606001604052806060815260200160008152602001600081525090565b5b808211156102ee5760008160009055506001016102d6565b5090565b600082601f83011261030357600080fd5b8135610316610311826106a8565b610677565b9150818183526020840193506020810190508360005b8381101561035c578135860161034288826103e4565b84526020840193506020830192505060018101905061032c565b5050505092915050565b600081359050610375816107c2565b92915050565b60008135905061038a816107d2565b92915050565b600082601f8301126103a157600080fd5b81356103b46103af826106d4565b610677565b915080825260208301602083018583830111156103d057600080fd5b6103db838284610759565b50505092915050565b6000606082840312156103f657600080fd5b6104006060610677565b9050600082013567ffffffffffffffff81111561041c57600080fd5b61042884828501610390565b600083015250602061043c8482850161037b565b60208301525060406104508482850161037b565b60408301525092915050565b60008135905061046b816107e9565b92915050565b60006020828403121561048357600080fd5b600061049184828501610366565b91505092915050565b6000806000606084860312156104af57600080fd5b600084013567ffffffffffffffff8111156104c957600080fd5b6104d586828701610390565b93505060206104e68682870161037b565b92505060406104f78682870161037b565b9150509250925092565b6000806040838503121561051457600080fd5b60006105228582860161045c565b925050602083013567ffffffffffffffff81111561053f57600080fd5b61054b858286016102f2565b9150509250929050565b61055e81610747565b82525050565b61056d81610733565b82525050565b600061057e82610704565b610588818561070f565b9350610598818560208601610768565b6105a18161079d565b840191505092915050565b600060608301600083015184820360008601526105c98282610573565b91505060208301516105de6020860182610564565b5060408301516105f16040860182610564565b508091505092915050565b6040820160008201516106126000850182610555565b506020820151610625602085018261062b565b50505050565b6106348161073d565b82525050565b6000602082019050818103600083015261065481846105ac565b905092915050565b600060408201905061067160008301846105fc565b92915050565b6000604051905081810181811067ffffffffffffffff8211171561069e5761069d61079b565b5b8060405250919050565b600067ffffffffffffffff8211156106c3576106c261079b565b5b602082029050602081019050919050565b600067ffffffffffffffff8211156106ef576106ee61079b565b5b601f19601f8301169050602081019050919050565b600081519050919050565b600082825260208201905092915050565b600081905061072e826107ae565b919050565b6000819050919050565b6000819050919050565b600061075282610720565b9050919050565b82818337600083830152505050565b60005b8381101561078657808201518184015260208101905061076b565b83811115610795576000848401525b50505050565bfe5b6000601f19601f8301169050919050565b600381106107bf576107be61079b565b5b50565b600381106107cf57600080fd5b50565b6107db81610733565b81146107e657600080fd5b50565b6107f28161073d565b81146107fd57600080fd5b5056fea264697066735822122063ce7e0b88cf5ebe9fa32539cc4d2266af218179223b6e4dfb898301970ced0664736f6c63430007040033",
  "immutableReferences": {},
  "source": "//SPDX-License-Identifier: UNLICENSED\npragma solidity ^0.7.4;\npragma experimental ABIEncoderV2;\n\ncontract Reviews {\n    struct ChangeRequest {\n        string comment;\n        int page; // -1 if the CR is for the whole submit\n        int line; // -1 if the CR is for the whole submit\n    }\n\n    enum ReviewStatus {\n        Accepted,\n        Rejected,\n        ChangeRequested\n    }\n\n    struct Review {\n        ReviewStatus status;\n        uint256 id;\n    }\n\n    mapping(uint256 => ChangeRequest[]) reviewIdToChangeRequests;\n    uint256 private currentReviewId = 0;\n\n\n    /**\n     * Create a review and returns it's id so the front can possibly add ChangeRequests\n     *\n     * @param _status   what the reviewers think should happen next (accept, reject, change).\n     **/\n    function createReview(ReviewStatus _status) public returns (Review memory) {\n        Review memory review = Review({\n            status: _status,\n            id: currentReviewId\n        });\n\n        currentReviewId++;\n        return review;\n    }\n\n    /**\n     * Add a list of requests to a newly created review.\n     *\n     * @param _reviewId Id freshly returned by @createReview.\n     * @param _requests List of the requests asked by the reviewer.\n     *\n     * The front will ask the reviewer the status of its review, and right after\n     * it will ask if he wants to add ChangeRequests.\n     * The reviewer will create _requests array the front which will call 'createChangeRequest'\n     **/\n    function addChangeRequestToReview(uint256 _reviewId, ChangeRequest[] memory _requests) public {\n        uint changeRequestCount = reviewIdToChangeRequests[_reviewId].length;\n        require(changeRequestCount == 0);\n\n        for (uint i = 0; i != changeRequestCount; i += 1) {\n            reviewIdToChangeRequests[_reviewId].push(_requests[i]);\n        }\n    }\n\n    /**\n     * Helper function which simply returns a ChangeRequest.\n     *\n     * @param _comment What the reviewers think is not okay or wants changed\n     * @param _page    The page concerned by the comment (-1 if it's for the whole paper)\n     * @param _line    The line concerned by the comment (-1 if it's for the whole paper)\n     *\n     * Due to the length of a call to a contract, I think it would be best if the front\n     * can create the changeRequests by itself.\n     **/\n    function createChangeRequest(string memory _comment, int _page, int _line)\n        public pure returns (ChangeRequest memory) {\n        return ChangeRequest({\n            comment: _comment,\n            page: _page,\n            line: _line\n        });\n    }\n}\n",
  "sourcePath": "/home/matthis/Documents/Epitech/POC/ResearchShare/src/contracts/contracts/reviews.sol",
  "compiler": {
    "name": "solc",
    "version": "0.7.4+commit.3f05b770.Emscripten.clang"
  },
  "schemaVersion": "3.3.3",
  "updatedAt": "2021-01-08T16:58:15.601Z",
  "devdoc": {
    "kind": "dev",
    "methods": {
      "addChangeRequestToReview(uint256,(string,int256,int256)[])": {
        "params": {
          "_requests": "List of the requests asked by the reviewer. The front will ask the reviewer the status of its review, and right after it will ask if he wants to add ChangeRequests. The reviewer will create _requests array the front which will call 'createChangeRequest'*",
          "_reviewId": "Id freshly returned by @createReview."
        }
      },
      "createChangeRequest(string,int256,int256)": {
        "params": {
          "_comment": "What the reviewers think is not okay or wants changed",
          "_line": "The line concerned by the comment (-1 if it's for the whole paper) Due to the length of a call to a contract, I think it would be best if the front can create the changeRequests by itself.*",
          "_page": "The page concerned by the comment (-1 if it's for the whole paper)"
        }
      },
      "createReview(uint8)": {
        "params": {
          "_status": "what the reviewers think should happen next (accept, reject, change).*"
        }
      }
    },
    "version": 1
  },
  "userdoc": {
    "kind": "user",
    "methods": {
      "addChangeRequestToReview(uint256,(string,int256,int256)[])": {
        "notice": "Add a list of requests to a newly created review."
      },
      "createChangeRequest(string,int256,int256)": {
        "notice": "Helper function which simply returns a ChangeRequest."
      },
      "createReview(uint8)": {
        "notice": "Create a review and returns it's id so the front can possibly add ChangeRequests"
      }
    },
    "version": 1
  }
}