{
  "contractName": "Submits",
  "abi": [
    {
      "inputs": [
        {
          "internalType": "uint256",
          "name": "_reviewId",
          "type": "uint256"
        },
        {
          "components": [
            {
              "internalType": "string",
              "name": "comment",
              "type": "string"
            },
            {
              "internalType": "int256",
              "name": "page",
              "type": "int256"
            },
            {
              "internalType": "int256",
              "name": "line",
              "type": "int256"
            }
          ],
          "internalType": "struct Reviews.ChangeRequest[]",
          "name": "_requests",
          "type": "tuple[]"
        }
      ],
      "name": "addChangeRequestToReview",
      "outputs": [],
      "stateMutability": "nonpayable",
      "type": "function"
    },
    {
      "inputs": [
        {
          "internalType": "string",
          "name": "_comment",
          "type": "string"
        },
        {
          "internalType": "int256",
          "name": "_page",
          "type": "int256"
        },
        {
          "internalType": "int256",
          "name": "_line",
          "type": "int256"
        }
      ],
      "name": "createChangeRequest",
      "outputs": [
        {
          "components": [
            {
              "internalType": "string",
              "name": "comment",
              "type": "string"
            },
            {
              "internalType": "int256",
              "name": "page",
              "type": "int256"
            },
            {
              "internalType": "int256",
              "name": "line",
              "type": "int256"
            }
          ],
          "internalType": "struct Reviews.ChangeRequest",
          "name": "",
          "type": "tuple"
        }
      ],
      "stateMutability": "pure",
      "type": "function"
    },
    {
      "inputs": [
        {
          "internalType": "enum Reviews.ReviewStatus",
          "name": "_status",
          "type": "uint8"
        }
      ],
      "name": "createReview",
      "outputs": [
        {
          "components": [
            {
              "internalType": "enum Reviews.ReviewStatus",
              "name": "status",
              "type": "uint8"
            },
            {
              "internalType": "uint256",
              "name": "id",
              "type": "uint256"
            }
          ],
          "internalType": "struct Reviews.Review",
          "name": "",
          "type": "tuple"
        }
      ],
      "stateMutability": "nonpayable",
      "type": "function"
    },
    {
      "inputs": [
        {
          "internalType": "string",
          "name": "_ipfsHash",
          "type": "string"
        }
      ],
      "name": "newSubmit",
      "outputs": [
        {
          "internalType": "uint256",
          "name": "",
          "type": "uint256"
        }
      ],
      "stateMutability": "nonpayable",
      "type": "function"
    },
    {
      "inputs": [
        {
          "internalType": "uint256",
          "name": "_submitId",
          "type": "uint256"
        },
        {
          "internalType": "address[]",
          "name": "_reviewers",
          "type": "address[]"
        }
      ],
      "name": "addReviewers",
      "outputs": [],
      "stateMutability": "nonpayable",
      "type": "function"
    },
    {
      "inputs": [
        {
          "internalType": "string",
          "name": "_ipfsHash",
          "type": "string"
        },
        {
          "internalType": "enum Reviews.ReviewStatus",
          "name": "_status",
          "type": "uint8"
        }
      ],
      "name": "addReview",
      "outputs": [
        {
          "internalType": "uint256",
          "name": "",
          "type": "uint256"
        }
      ],
      "stateMutability": "nonpayable",
      "type": "function"
    }
  ],
  "bytecode": "0x60806040526000600155600160025534801561001a57600080fd5b50610dc08061002a6000396000f3fe608060405234801561001057600080fd5b50600436106100625760003560e01c806328c5be3c1461006757806365bd95cc14610097578063682e8ca5146100b357806381f44eeb146100cf578063d5da4604146100ff578063fc05544a1461012f575b600080fd5b610081600480360381019061007c919061088a565b61015f565b60405161008e9190610b66565b60405180910390f35b6100b160048036038101906100ac9190610945565b610225565b005b6100cd60048036038101906100c89190610999565b610251565b005b6100e960048036038101906100e49190610820565b610315565b6040516100f69190610b4b565b60405180910390f35b610119600480360381019061011491906108de565b610364565b6040516101269190610b29565b60405180910390f35b61014960048036038101906101449190610849565b610390565b6040516101569190610b66565b60405180910390f35b6000806004846040516101729190610b12565b9081526020016040518091039020549050600081141561019157600080fd5b61019961048e565b6101a284610315565b90506006600083815260200190815260200160002081908060018154018082558091505060019003906000526020600020906002020160009091909190915060008201518160000160006101000a81548160ff0219169083600281111561020557fe5b021790555060208201518160010155505080602001519250505092915050565b8060076000848152602001908152602001600020908051906020019061024c9291906104b3565b505050565b60008060008481526020019081526020016000208054905090506000811461027857600080fd5b60005b81811461030f576000808581526020019081526020016000208382815181106102a057fe5b6020026020010151908060018154018082558091505060019003906000526020600020906003020160009091909190915060008201518160000190805190602001906102ed92919061053d565b506020820151816001015560408201518160020155505060018101905061027b565b50505050565b61031d61048e565b61032561048e565b604051806040016040528084600281111561033c57fe5b8152602001600154815250905060016000815480929190600101919050555080915050919050565b61036c6105cb565b60405180606001604052808581526020018481526020018381525090509392505050565b6000806004836040516103a39190610b12565b908152602001604051809103902054146103bc57600080fd5b600060025490506001600260008282540192505081905550806004846040516103e59190610b12565b9081526020016040518091039020819055508260036000838152602001908152602001600020908051906020019061041e92919061053d565b50600560003373ffffffffffffffffffffffffffffffffffffffff1673ffffffffffffffffffffffffffffffffffffffff16815260200190815260200160002081908060018154018082558091505060019003906000526020600020016000909190919091505580915050919050565b6040518060400160405280600060028111156104a657fe5b8152602001600081525090565b82805482825590600052602060002090810192821561052c579160200282015b8281111561052b5782518260006101000a81548173ffffffffffffffffffffffffffffffffffffffff021916908373ffffffffffffffffffffffffffffffffffffffff160217905550916020019190600101906104d3565b5b50905061053991906105ec565b5090565b828054600181600116156101000203166002900490600052602060002090601f01602090048101928261057357600085556105ba565b82601f1061058c57805160ff19168380011785556105ba565b828001600101855582156105ba579182015b828111156105b957825182559160200191906001019061059e565b5b5090506105c791906105ec565b5090565b60405180606001604052806060815260200160008152602001600081525090565b5b808211156106055760008160009055506001016105ed565b5090565b60008135905061061881610d35565b92915050565b600082601f83011261062f57600080fd5b813561064261063d82610bb2565b610b81565b9150818183526020840193506020810190508385602084028201111561066757600080fd5b60005b83811015610697578161067d8882610609565b84526020840193506020830192505060018101905061066a565b5050505092915050565b600082601f8301126106b257600080fd5b81356106c56106c082610bde565b610b81565b9150818183526020840193506020810190508360005b8381101561070b57813586016106f18882610793565b8452602084019350602083019250506001810190506106db565b5050505092915050565b60008135905061072481610d4c565b92915050565b60008135905061073981610d5c565b92915050565b600082601f83011261075057600080fd5b813561076361075e82610c0a565b610b81565b9150808252602083016020830185838301111561077f57600080fd5b61078a838284610ccc565b50505092915050565b6000606082840312156107a557600080fd5b6107af6060610b81565b9050600082013567ffffffffffffffff8111156107cb57600080fd5b6107d78482850161073f565b60008301525060206107eb8482850161072a565b60208301525060406107ff8482850161072a565b60408301525092915050565b60008135905061081a81610d73565b92915050565b60006020828403121561083257600080fd5b600061084084828501610715565b91505092915050565b60006020828403121561085b57600080fd5b600082013567ffffffffffffffff81111561087557600080fd5b6108818482850161073f565b91505092915050565b6000806040838503121561089d57600080fd5b600083013567ffffffffffffffff8111156108b757600080fd5b6108c38582860161073f565b92505060206108d485828601610715565b9150509250929050565b6000806000606084860312156108f357600080fd5b600084013567ffffffffffffffff81111561090d57600080fd5b6109198682870161073f565b935050602061092a8682870161072a565b925050604061093b8682870161072a565b9150509250925092565b6000806040838503121561095857600080fd5b60006109668582860161080b565b925050602083013567ffffffffffffffff81111561098357600080fd5b61098f8582860161061e565b9150509250929050565b600080604083850312156109ac57600080fd5b60006109ba8582860161080b565b925050602083013567ffffffffffffffff8111156109d757600080fd5b6109e3858286016106a1565b9150509250929050565b6109f681610cba565b82525050565b610a0581610c86565b82525050565b6000610a1682610c3a565b610a208185610c45565b9350610a30818560208601610cdb565b610a3981610d10565b840191505092915050565b6000610a4f82610c3a565b610a598185610c56565b9350610a69818560208601610cdb565b80840191505092915050565b60006060830160008301518482036000860152610a928282610a0b565b9150506020830151610aa760208601826109fc565b506040830151610aba60408601826109fc565b508091505092915050565b604082016000820151610adb60008501826109ed565b506020820151610aee6020850182610af4565b50505050565b610afd81610cb0565b82525050565b610b0c81610cb0565b82525050565b6000610b1e8284610a44565b915081905092915050565b60006020820190508181036000830152610b438184610a75565b905092915050565b6000604082019050610b606000830184610ac5565b92915050565b6000602082019050610b7b6000830184610b03565b92915050565b6000604051905081810181811067ffffffffffffffff82111715610ba857610ba7610d0e565b5b8060405250919050565b600067ffffffffffffffff821115610bcd57610bcc610d0e565b5b602082029050602081019050919050565b600067ffffffffffffffff821115610bf957610bf8610d0e565b5b602082029050602081019050919050565b600067ffffffffffffffff821115610c2557610c24610d0e565b5b601f19601f8301169050602081019050919050565b600081519050919050565b600082825260208201905092915050565b600081905092915050565b6000610c6c82610c90565b9050919050565b6000819050610c8182610d21565b919050565b6000819050919050565b600073ffffffffffffffffffffffffffffffffffffffff82169050919050565b6000819050919050565b6000610cc582610c73565b9050919050565b82818337600083830152505050565b60005b83811015610cf9578082015181840152602081019050610cde565b83811115610d08576000848401525b50505050565bfe5b6000601f19601f8301169050919050565b60038110610d3257610d31610d0e565b5b50565b610d3e81610c61565b8114610d4957600080fd5b50565b60038110610d5957600080fd5b50565b610d6581610c86565b8114610d7057600080fd5b50565b610d7c81610cb0565b8114610d8757600080fd5b5056fea2646970667358221220eebcf38c9a040f793cb6e8d936d8fff76f9101cb2878cf2876fd527805b85eed64736f6c63430007040033",
  "immutableReferences": {},
  "source": "//SPDX-License-Identifier: UNLICENSED\npragma solidity ^0.7.4;\npragma experimental ABIEncoderV2;\n\nimport \"./reviews.sol\";\n\n/**\n * A Submit corresponds to a proposal of Paper so we use the Paper's IPFS hash,\n * which is represented by a string, to represent it.\n *\n * Each Submit triggers a review process. Each reviewers can add a Review to a Submit.\n **/\ncontract Submits is Reviews {\n    uint constant private notSubmitted = 0;\n    uint private currentSubmitId = 1;\n    mapping(uint => string) private idToSubmit;\n    mapping(string => uint) private submitToId;\n\n    mapping(address => uint[]) userToSubmitsIds;\n\n    mapping(uint => Review[]) submitIdToReviews;\n    mapping(uint => address[]) private submitIdToReviewers; // TODO: handle this in addReview & creation of it\n\n    /**\n     * Add a submit to \"userToSubmits\" if it doesn't exists.\n     *\n     * @param _ipfsHash Hash of the submitted file.\n     **/\n    function newSubmit(string memory _ipfsHash) public returns (uint) {\n        require(submitToId[_ipfsHash] == notSubmitted);\n\n        uint id = currentSubmitId;\n        currentSubmitId += 1;\n\n        submitToId[_ipfsHash] = id;\n        idToSubmit[id] = _ipfsHash;\n\n        userToSubmitsIds[msg.sender].push(id);\n        return id;\n    }\n\n    /**\n     * Add Reviwers to a submit.\n     *\n     * @param _submitId  Id of the submit.\n     * @param _reviewers List of the reviewers.\n     **/\n    function addReviewers(uint _submitId, address[] memory _reviewers) public {\n        submitIdToReviewers[_submitId] = _reviewers;\n    }\n\n    /**\n     * Add a new review to a submit and returns the review's id;\n     *\n     * @param _ipfsHash Hash of the submitted file.\n     * @param _status   What the reviewers think should happen next to the submit.\n     **/\n    function addReview(string memory _ipfsHash, ReviewStatus _status) public returns (uint) {\n        uint id = submitToId[_ipfsHash];\n        require(id != notSubmitted);\n\n        Review memory review = createReview(_status);\n        submitIdToReviews[id].push(review);\n\n        return review.id;\n    }\n}\n",
  "sourcePath": "/home/matthis/Documents/Epitech/POC/ResearchShare/src/contracts/contracts/submits.sol",
  "compiler": {
    "name": "solc",
    "version": "0.7.4+commit.3f05b770.Emscripten.clang"
  },
  "schemaVersion": "3.3.3",
  "updatedAt": "2021-01-08T16:58:15.623Z",
  "devdoc": {
    "kind": "dev",
    "methods": {
      "addChangeRequestToReview(uint256,(string,int256,int256)[])": {
        "params": {
          "_requests": "List of the requests asked by the reviewer. The front will ask the reviewer the status of its review, and right after it will ask if he wants to add ChangeRequests. The reviewer will create _requests array the front which will call 'createChangeRequest'*",
          "_reviewId": "Id freshly returned by @createReview."
        }
      },
      "addReview(string,uint8)": {
        "params": {
          "_ipfsHash": "Hash of the submitted file.",
          "_status": "What the reviewers think should happen next to the submit.*"
        }
      },
      "addReviewers(uint256,address[])": {
        "params": {
          "_reviewers": "List of the reviewers.*",
          "_submitId": "Id of the submit."
        }
      },
      "createChangeRequest(string,int256,int256)": {
        "params": {
          "_comment": "What the reviewers think is not okay or wants changed",
          "_line": "The line concerned by the comment (-1 if it's for the whole paper) Due to the length of a call to a contract, I think it would be best if the front can create the changeRequests by itself.*",
          "_page": "The page concerned by the comment (-1 if it's for the whole paper)"
        }
      },
      "createReview(uint8)": {
        "params": {
          "_status": "what the reviewers think should happen next (accept, reject, change).*"
        }
      },
      "newSubmit(string)": {
        "params": {
          "_ipfsHash": "Hash of the submitted file.*"
        }
      }
    },
    "version": 1
  },
  "userdoc": {
    "kind": "user",
    "methods": {
      "addChangeRequestToReview(uint256,(string,int256,int256)[])": {
        "notice": "Add a list of requests to a newly created review."
      },
      "addReview(string,uint8)": {
        "notice": "Add a new review to a submit and returns the review's id;"
      },
      "addReviewers(uint256,address[])": {
        "notice": "Add Reviwers to a submit."
      },
      "createChangeRequest(string,int256,int256)": {
        "notice": "Helper function which simply returns a ChangeRequest."
      },
      "createReview(uint8)": {
        "notice": "Create a review and returns it's id so the front can possibly add ChangeRequests"
      },
      "newSubmit(string)": {
        "notice": "Add a submit to \"userToSubmits\" if it doesn't exists."
      }
    },
    "notice": "A Submit corresponds to a proposal of Paper so we use the Paper's IPFS hash, which is represented by a string, to represent it. Each Submit triggers a review process. Each reviewers can add a Review to a Submit.*",
    "version": 1
  }
}