{
  "contractName": "Users",
  "abi": [
    {
      "inputs": [
        {
          "internalType": "string",
          "name": "_firstname",
          "type": "string"
        },
        {
          "internalType": "string",
          "name": "_lastname",
          "type": "string"
        },
        {
          "internalType": "string[]",
          "name": "_fields",
          "type": "string[]"
        }
      ],
      "name": "registerUser",
      "outputs": [],
      "stateMutability": "nonpayable",
      "type": "function"
    },
    {
      "inputs": [],
      "name": "getUser",
      "outputs": [
        {
          "components": [
            {
              "internalType": "string",
              "name": "firstname",
              "type": "string"
            },
            {
              "internalType": "string",
              "name": "lastname",
              "type": "string"
            },
            {
              "internalType": "string[]",
              "name": "fields",
              "type": "string[]"
            }
          ],
          "internalType": "struct Users.User",
          "name": "",
          "type": "tuple"
        }
      ],
      "stateMutability": "view",
      "type": "function"
    }
  ],
  "bytecode": "0x608060405234801561001057600080fd5b50610956806100206000396000f3fe608060405234801561001057600080fd5b50600436106100365760003560e01c8063832880e71461003b578063e7a8c91214610059575b600080fd5b610043610075565b60405161005091906107c7565b60405180910390f35b610073600480360381019061006e9190610610565b6102f8565b005b61007d6103b0565b6000803373ffffffffffffffffffffffffffffffffffffffff1673ffffffffffffffffffffffffffffffffffffffff168152602001908152602001600020604051806060016040529081600082018054600181600116156101000203166002900480601f01602080910402602001604051908101604052809291908181526020018280546001816001161561010002031660029004801561015f5780601f106101345761010080835404028352916020019161015f565b820191906000526020600020905b81548152906001019060200180831161014257829003601f168201915b50505050508152602001600182018054600181600116156101000203166002900480601f0160208091040260200160405190810160405280929190818152602001828054600181600116156101000203166002900480156102015780601f106101d657610100808354040283529160200191610201565b820191906000526020600020905b8154815290600101906020018083116101e457829003601f168201915b5050505050815260200160028201805480602002602001604051908101604052809291908181526020016000905b828210156102eb578382906000526020600020018054600181600116156101000203166002900480601f0160208091040260200160405190810160405280929190818152602001828054600181600116156101000203166002900480156102d75780601f106102ac576101008083540402835291602001916102d7565b820191906000526020600020905b8154815290600101906020018083116102ba57829003601f168201915b50505050508152602001906001019061022f565b5050505081525050905090565b6040518060600160405280848152602001838152602001828152506000803373ffffffffffffffffffffffffffffffffffffffff1673ffffffffffffffffffffffffffffffffffffffff168152602001908152602001600020600082015181600001908051906020019061036d9291906103d1565b50602082015181600101908051906020019061038a9291906103d1565b5060408201518160020190805190602001906103a792919061045f565b50905050505050565b60405180606001604052806060815260200160608152602001606081525090565b828054600181600116156101000203166002900490600052602060002090601f016020900481019282610407576000855561044e565b82601f1061042057805160ff191683800117855561044e565b8280016001018555821561044e579182015b8281111561044d578251825591602001919060010190610432565b5b50905061045b91906104bf565b5090565b8280548282559060005260206000209081019282156104ae579160200282015b828111156104ad57825182908051906020019061049d9291906103d1565b509160200191906001019061047f565b5b5090506104bb91906104dc565b5090565b5b808211156104d85760008160009055506001016104c0565b5090565b5b808211156104fc57600081816104f39190610500565b506001016104dd565b5090565b50805460018160011615610100020316600290046000825580601f106105265750610545565b601f01602090049060005260206000209081019061054491906104bf565b5b50565b600082601f83011261055957600080fd5b813561056c6105678261081a565b6107e9565b9150818183526020840193506020810190508360005b838110156105b2578135860161059888826105bc565b845260208401935060208301925050600181019050610582565b5050505092915050565b600082601f8301126105cd57600080fd5b81356105e06105db82610846565b6107e9565b915080825260208301602083018583830111156105fc57600080fd5b6106078382846108cb565b50505092915050565b60008060006060848603121561062557600080fd5b600084013567ffffffffffffffff81111561063f57600080fd5b61064b868287016105bc565b935050602084013567ffffffffffffffff81111561066857600080fd5b610674868287016105bc565b925050604084013567ffffffffffffffff81111561069157600080fd5b61069d86828701610548565b9150509250925092565b60006106b38383610730565b905092915050565b60006106c682610886565b6106d081856108a9565b9350836020820285016106e285610876565b8060005b8581101561071e57848403895281516106ff85826106a7565b945061070a8361089c565b925060208a019950506001810190506106e6565b50829750879550505050505092915050565b600061073b82610891565b61074581856108ba565b93506107558185602086016108da565b61075e8161090f565b840191505092915050565b600060608301600083015184820360008601526107868282610730565b915050602083015184820360208601526107a08282610730565b915050604083015184820360408601526107ba82826106bb565b9150508091505092915050565b600060208201905081810360008301526107e18184610769565b905092915050565b6000604051905081810181811067ffffffffffffffff821117156108105761080f61090d565b5b8060405250919050565b600067ffffffffffffffff8211156108355761083461090d565b5b602082029050602081019050919050565b600067ffffffffffffffff8211156108615761086061090d565b5b601f19601f8301169050602081019050919050565b6000819050602082019050919050565b600081519050919050565b600081519050919050565b6000602082019050919050565b600082825260208201905092915050565b600082825260208201905092915050565b82818337600083830152505050565b60005b838110156108f85780820151818401526020810190506108dd565b83811115610907576000848401525b50505050565bfe5b6000601f19601f830116905091905056fea264697066735822122015cf9c40d891a6a26e983c8e4a67637a74757353ef78f041d22139df8d2d8ae064736f6c63430007040033",
  "immutableReferences": {},
  "source": "//SPDX-License-Identifier: UNLICENSED\npragma solidity >=0.7.4;\npragma experimental ABIEncoderV2;\n\ncontract Users {\n    struct User {\n        string firstname;\n        string lastname;\n        string[] fields;\n    }\n\n    mapping (address => User) private users;\n\n    function registerUser(string memory _firstname, string memory _lastname, string[] memory _fields) public {\n        users[msg.sender] = User({\n            firstname: _firstname,\n            lastname: _lastname,\n            fields: _fields\n        });\n    }\n\n    function getUser() public view returns (User memory) {\n        return users[msg.sender];\n    }\n}\n",
  "sourcePath": "/home/matthis/Documents/Epitech/POC/ResearchShare/src/contracts/contracts/users.sol",
  "compiler": {
    "name": "solc",
    "version": "0.7.4+commit.3f05b770.Emscripten.clang"
  },
  "schemaVersion": "3.3.3",
  "updatedAt": "2021-01-08T16:58:15.632Z",
  "devdoc": {
    "kind": "dev",
    "methods": {},
    "version": 1
  },
  "userdoc": {
    "kind": "user",
    "methods": {},
    "version": 1
  }
}